{
  "contractName": "SimpleBanking",
  "abi": [
    {
      "inputs": [],
      "name": "getBalance",
      "outputs": [
        {
          "internalType": "uint256",
          "name": "",
          "type": "uint256"
        }
      ],
      "stateMutability": "view",
      "type": "function",
      "constant": true
    },
    {
      "inputs": [],
      "name": "deposit",
      "outputs": [],
      "stateMutability": "payable",
      "type": "function",
      "payable": true
    },
    {
      "inputs": [
        {
          "internalType": "uint256",
          "name": "amount",
          "type": "uint256"
        }
      ],
      "name": "withdraw",
      "outputs": [],
      "stateMutability": "nonpayable",
      "type": "function"
    },
    {
      "inputs": [
        {
          "internalType": "uint256",
          "name": "amount",
          "type": "uint256"
        },
        {
          "internalType": "address",
          "name": "to",
          "type": "address"
        }
      ],
      "name": "transfer",
      "outputs": [],
      "stateMutability": "nonpayable",
      "type": "function"
    }
  ],
  "bytecode": "0x608060405234801561001057600080fd5b506103b8806100206000396000f3fe60806040526004361061003f5760003560e01c806312065fe0146100445780632e1a7d4d1461006f578063b7760c8f146100aa578063d0e30db014610105575b600080fd5b34801561005057600080fd5b5061005961010f565b6040518082815260200191505060405180910390f35b34801561007b57600080fd5b506100a86004803603602081101561009257600080fd5b8101908080359060200190929190505050610155565b005b3480156100b657600080fd5b50610103600480360360408110156100cd57600080fd5b8101908080359060200190929190803573ffffffffffffffffffffffffffffffffffffffff169060200190929190505050610244565b005b61010d610334565b005b60008060003373ffffffffffffffffffffffffffffffffffffffff1673ffffffffffffffffffffffffffffffffffffffff16815260200190815260200160002054905090565b80806000803373ffffffffffffffffffffffffffffffffffffffff1673ffffffffffffffffffffffffffffffffffffffff1681526020019081526020016000205410156101a157600080fd5b600033905060008190508073ffffffffffffffffffffffffffffffffffffffff166108fc859081150290604051600060405180830381858888f193505050501580156101f1573d6000803e3d6000fd5b50836000803373ffffffffffffffffffffffffffffffffffffffff1673ffffffffffffffffffffffffffffffffffffffff1681526020019081526020016000206000828254039250508190555050505050565b81806000803373ffffffffffffffffffffffffffffffffffffffff1673ffffffffffffffffffffffffffffffffffffffff16815260200190815260200160002054101561029057600080fd5b600082905060008190508073ffffffffffffffffffffffffffffffffffffffff166108fc869081150290604051600060405180830381858888f193505050501580156102e0573d6000803e3d6000fd5b50846000803373ffffffffffffffffffffffffffffffffffffffff1673ffffffffffffffffffffffffffffffffffffffff168152602001908152602001600020600082825403925050819055505050505050565b346000803373ffffffffffffffffffffffffffffffffffffffff1673ffffffffffffffffffffffffffffffffffffffff1681526020019081526020016000206000828254019250508190555056fea2646970667358221220f397bce13a4fbeb85a4c65a53aa696b5111557b9f976f754f7cd2897d4eeb34864736f6c63430006000033",
  "source": "// SPDX-License-Identifier: MIT\npragma solidity >=0.6.0 <8.10.0;\n\ncontract SimpleBanking {\n    mapping(address => uint256) balanceOf;\n\n\n    function getBalance() public view returns (uint256) {\n        return balanceOf[msg.sender];\n    }\n\n    modifier ValidateWithdraw(uint256 amount) {\n        require(balanceOf[msg.sender] >= amount);\n        _;\n    }\n\n    function deposit() external payable {\n        balanceOf[msg.sender] += msg.value;\n    }\n\n    function withdraw(uint256 amount) external ValidateWithdraw(amount) {\n        address addr1 = msg.sender;\n        address payable addr2=payable(addr1);\n        addr2.transfer(amount);\n        balanceOf[msg.sender] -= amount;\n    }\n\n    function transfer(uint256 amount, address to) external ValidateWithdraw(amount){\n        address addr1=to;\n        address payable addr2=payable(addr1);\n        addr2.transfer(amount);\n        balanceOf[msg.sender] -= amount;\n    }\n}\n",
  "sourcePath": "D:\\Blockchain\\Truffle\\Simple_Banking_Application_Dapp\\contracts\\SimpleBanking.sol",
  "compiler": {
    "name": "solc",
    "version": "0.6.0+commit.26b70077.Emscripten.clang"
  },
  "schemaVersion": "3.4.7",
  "updatedAt": "2022-06-16T04:46:11.689Z",
  "networkType": "ethereum",
  "devdoc": {
    "methods": {}
  },
  "userdoc": {
    "methods": {}
  }
}