{
  "contractName": "SimpleBanking",
  "abi": [
    {
      "anonymous": false,
      "inputs": [
        {
          "indexed": false,
          "internalType": "address",
          "name": "_buyer",
          "type": "address"
        },
        {
          "indexed": false,
          "internalType": "uint256",
          "name": "_value",
          "type": "uint256"
        },
        {
          "indexed": false,
          "internalType": "string",
          "name": "err",
          "type": "string"
        }
      ],
      "name": "ErrorMsg",
      "type": "event"
    },
    {
      "inputs": [],
      "name": "getBalance",
      "outputs": [
        {
          "internalType": "uint256",
          "name": "",
          "type": "uint256"
        }
      ],
      "stateMutability": "view",
      "type": "function",
      "constant": true
    },
    {
      "inputs": [
        {
          "internalType": "uint256",
          "name": "_amount",
          "type": "uint256"
        }
      ],
      "name": "deposit",
      "outputs": [],
      "stateMutability": "payable",
      "type": "function",
      "payable": true
    },
    {
      "inputs": [
        {
          "internalType": "uint256",
          "name": "amount",
          "type": "uint256"
        }
      ],
      "name": "withdraw",
      "outputs": [],
      "stateMutability": "payable",
      "type": "function",
      "payable": true
    }
  ],
  "bytecode": "0x608060405234801561001057600080fd5b50610318806100206000396000f3fe6080604052600436106100345760003560e01c806312065fe0146100395780632e1a7d4d14610064578063b6b55f2514610092575b600080fd5b34801561004557600080fd5b5061004e6100c0565b6040518082815260200191505060405180910390f35b6100906004803603602081101561007a57600080fd5b8101908080359060200190929190505050610106565b005b6100be600480360360208110156100a857600080fd5b8101908080359060200190929190505050610293565b005b60008060003373ffffffffffffffffffffffffffffffffffffffff1673ffffffffffffffffffffffffffffffffffffffff16815260200190815260200160002054905090565b80806000803373ffffffffffffffffffffffffffffffffffffffff1673ffffffffffffffffffffffffffffffffffffffff16815260200190815260200160002054101561015257600080fd5b7f57c43cbe6f8f101fa086e799192bddc894119dad4838b9b17fde7047188f0ef73382604051808373ffffffffffffffffffffffffffffffffffffffff1673ffffffffffffffffffffffffffffffffffffffff168152602001828152602001806020018281038252601a8152602001807f446f206e6f74206861766520456e6f7567682042616c616e6365000000000000815250602001935050505060405180910390a1816000803373ffffffffffffffffffffffffffffffffffffffff1673ffffffffffffffffffffffffffffffffffffffff1681526020019081526020016000206000828254039250508190555060003390508073ffffffffffffffffffffffffffffffffffffffff166108fc849081150290604051600060405180830381858888f1935050505015801561028d573d6000803e3d6000fd5b50505050565b806000803373ffffffffffffffffffffffffffffffffffffffff1673ffffffffffffffffffffffffffffffffffffffff168152602001908152602001600020600082825401925050819055505056fea2646970667358221220cf791f00929af680cd9831829575501b4a38713b11aa2d9b95ace660ae0f432e64736f6c63430006000033",
  "source": "// SPDX-License-Identifier: MIT\npragma solidity >=0.5.0 <8.10.0;\n\ncontract SimpleBanking {\n    mapping(address => uint256) balanceOf;\n\n    event ErrorMsg(address _buyer, uint256 _value, string err);\n\n    function getBalance() public view returns (uint256) {\n        return balanceOf[msg.sender];\n    }\n\n    modifier ValidateWithdraw(uint256 amount) {\n        require(balanceOf[msg.sender] >= amount);\n        emit ErrorMsg(msg.sender, amount, \"Do not have Enough Balance\");\n        _;\n    }\n\n    function deposit(uint256 _amount) external payable {\n        balanceOf[msg.sender] += _amount;\n    }\n\n    function withdraw(uint256 amount)\n        external\n        payable\n        ValidateWithdraw(amount)\n    {\n        balanceOf[msg.sender] -= amount;\n        address payable addr1 = msg.sender;\n        addr1.transfer(amount);\n    }\n}\n",
  "sourcePath": "D:\\Blockchain\\Truffle\\Simple_Banking_Application_Dapp\\contracts\\SimpleBanking.sol",
  "compiler": {
    "name": "solc",
    "version": "0.6.0+commit.26b70077.Emscripten.clang"
  },
  "schemaVersion": "3.4.7",
  "updatedAt": "2022-06-02T15:23:27.949Z",
  "networkType": "ethereum",
  "devdoc": {
    "methods": {}
  },
  "userdoc": {
    "methods": {}
  }
}