{
  "contractName": "SimpleBanking",
  "abi": [
    {
      "inputs": [],
      "name": "getBalance",
      "outputs": [
        {
          "internalType": "uint256",
          "name": "",
          "type": "uint256"
        }
      ],
      "stateMutability": "view",
      "type": "function",
      "constant": true
    },
    {
      "inputs": [],
      "name": "deposit",
      "outputs": [],
      "stateMutability": "payable",
      "type": "function",
      "payable": true
    },
    {
      "inputs": [
        {
          "internalType": "uint256",
          "name": "amount",
          "type": "uint256"
        }
      ],
      "name": "withdraw",
      "outputs": [],
      "stateMutability": "nonpayable",
      "type": "function"
    }
  ],
  "bytecode": "0x608060405234801561001057600080fd5b50610262806100206000396000f3fe6080604052600436106100345760003560e01c806312065fe0146100395780632e1a7d4d14610064578063d0e30db01461009f575b600080fd5b34801561004557600080fd5b5061004e6100a9565b6040518082815260200191505060405180910390f35b34801561007057600080fd5b5061009d6004803603602081101561008757600080fd5b81019080803590602001909291905050506100ef565b005b6100a76101de565b005b60008060003373ffffffffffffffffffffffffffffffffffffffff1673ffffffffffffffffffffffffffffffffffffffff16815260200190815260200160002054905090565b80806000803373ffffffffffffffffffffffffffffffffffffffff1673ffffffffffffffffffffffffffffffffffffffff16815260200190815260200160002054101561013b57600080fd5b600033905060008190508073ffffffffffffffffffffffffffffffffffffffff166108fc859081150290604051600060405180830381858888f1935050505015801561018b573d6000803e3d6000fd5b50836000803373ffffffffffffffffffffffffffffffffffffffff1673ffffffffffffffffffffffffffffffffffffffff1681526020019081526020016000206000828254039250508190555050505050565b346000803373ffffffffffffffffffffffffffffffffffffffff1673ffffffffffffffffffffffffffffffffffffffff1681526020019081526020016000206000828254019250508190555056fea264697066735822122073d70d1ae19a9278fea78363662415d695b4c944cc60a6a29ba163f69e28910264736f6c63430006000033",
  "source": "// SPDX-License-Identifier: MIT\npragma solidity >=0.5.0 <8.10.0;\n\ncontract SimpleBanking {\n    mapping(address => uint256) balanceOf;\n\n    // event ErrorMsg(address _buyer, uint256 _value, string err);\n\n    function getBalance() public view returns (uint256) {\n        return balanceOf[msg.sender];\n    }\n\n    modifier ValidateWithdraw(uint256 amount) {\n        require(balanceOf[msg.sender] >= amount);\n        // emit ErrorMsg(msg.sender, amount, \"Do not have Enough Balance\");\n        _;\n    }\n\n    function deposit() external payable {\n        balanceOf[msg.sender] += msg.value;\n    }\n\n    function withdraw(uint256 amount) external ValidateWithdraw(amount) {\n        address addr1 = msg.sender;\n        address payable addr2 = payable(addr1);\n        addr2.transfer(amount);\n        balanceOf[msg.sender] -= amount;\n    }\n}\n",
  "sourcePath": "D:\\Blockchain\\Truffle\\Simple_Banking_Application_Dapp\\contracts\\SimpleBanking.sol",
  "compiler": {
    "name": "solc",
    "version": "0.6.0+commit.26b70077.Emscripten.clang"
  },
  "schemaVersion": "3.4.7",
  "updatedAt": "2022-06-05T00:15:38.984Z",
  "networkType": "ethereum",
  "devdoc": {
    "methods": {}
  },
  "userdoc": {
    "methods": {}
  }
}