{
  "contractName": "SimpleBanking",
  "abi": [
    {
      "inputs": [],
      "payable": false,
      "stateMutability": "nonpayable",
      "type": "constructor"
    },
    {
      "anonymous": false,
      "inputs": [
        {
          "indexed": false,
          "internalType": "address",
          "name": "_buyer",
          "type": "address"
        },
        {
          "indexed": false,
          "internalType": "uint256",
          "name": "_value",
          "type": "uint256"
        },
        {
          "indexed": false,
          "internalType": "string",
          "name": "err",
          "type": "string"
        }
      ],
      "name": "ErrorMsg",
      "type": "event"
    },
    {
      "constant": true,
      "inputs": [],
      "name": "getBalance",
      "outputs": [
        {
          "internalType": "uint256",
          "name": "",
          "type": "uint256"
        }
      ],
      "payable": false,
      "stateMutability": "view",
      "type": "function"
    },
    {
      "constant": false,
      "inputs": [
        {
          "internalType": "uint256",
          "name": "_amount",
          "type": "uint256"
        }
      ],
      "name": "deposit",
      "outputs": [],
      "payable": true,
      "stateMutability": "payable",
      "type": "function"
    },
    {
      "constant": false,
      "inputs": [
        {
          "internalType": "uint256",
          "name": "amount",
          "type": "uint256"
        }
      ],
      "name": "withdraw",
      "outputs": [],
      "payable": false,
      "stateMutability": "nonpayable",
      "type": "function"
    }
  ],
  "bytecode": "0x608060405234801561001057600080fd5b50336000806101000a81548173ffffffffffffffffffffffffffffffffffffffff021916908373ffffffffffffffffffffffffffffffffffffffff1602179055506301f3447f600160008060009054906101000a900473ffffffffffffffffffffffffffffffffffffffff1673ffffffffffffffffffffffffffffffffffffffff1673ffffffffffffffffffffffffffffffffffffffff168152602001908152602001600020819055506102db806100c96000396000f3fe6080604052600436106100345760003560e01c806312065fe0146100395780632e1a7d4d14610064578063b6b55f251461009f575b600080fd5b34801561004557600080fd5b5061004e6100cd565b6040518082815260200191505060405180910390f35b34801561007057600080fd5b5061009d6004803603602081101561008757600080fd5b8101908080359060200190929190505050610114565b005b6100cb600480360360208110156100b557600080fd5b8101908080359060200190929190505050610256565b005b6000600160003373ffffffffffffffffffffffffffffffffffffffff1673ffffffffffffffffffffffffffffffffffffffff16815260200190815260200160002054905090565b8080600160003373ffffffffffffffffffffffffffffffffffffffff1673ffffffffffffffffffffffffffffffffffffffff168152602001908152602001600020541161016057600080fd5b7f57c43cbe6f8f101fa086e799192bddc894119dad4838b9b17fde7047188f0ef7336001604051808373ffffffffffffffffffffffffffffffffffffffff1673ffffffffffffffffffffffffffffffffffffffff168152602001828152602001806020018281038252601a8152602001807f446f206e6f74206861766520456e6f7567682042616c616e6365000000000000815250602001935050505060405180910390a181600160003373ffffffffffffffffffffffffffffffffffffffff1673ffffffffffffffffffffffffffffffffffffffff168152602001908152602001600020600082825403925050819055505050565b80600160003373ffffffffffffffffffffffffffffffffffffffff1673ffffffffffffffffffffffffffffffffffffffff168152602001908152602001600020600082825401925050819055505056fea265627a7a7231582015a5717197e0ad4d042d99c79cb11d51d440258f71547f8b7f205f65d2db742964736f6c63430005100032",
  "source": "// SPDX-License-Identifier: MIT\npragma solidity >=0.4.21 <8.10.0;\n\ncontract SimpleBanking {\n    address private Creator_address;\n\n    mapping(address => uint256) balanceOf;\n\n    event ErrorMsg(address _buyer, uint256 _value, string err);\n\n    function getBalance() public view returns (uint256) {\n        return balanceOf[msg.sender];\n    }\n\n    modifier ValidateWithdraw(uint256 amount) {\n        require(balanceOf[msg.sender] > amount);\n        emit ErrorMsg(msg.sender, 1, \"Do not have Enough Balance\");\n        _;\n    }\n\n    constructor() public {\n        Creator_address = msg.sender;\n        balanceOf[Creator_address] = 32719999;\n    }\n\n    function deposit(uint256 _amount) external payable {\n        balanceOf[msg.sender] += _amount;\n    }\n\n    function withdraw(uint256 amount) external ValidateWithdraw(amount) {\n        balanceOf[msg.sender] -= amount;\n    }\n}\n",
  "sourcePath": "D:\\Blockchain\\Truffle\\Simple_Banking_Application_Dapp\\contracts\\SimpleBanking.sol",
  "compiler": {
    "name": "solc",
    "version": "0.5.16+commit.9c3226ce.Emscripten.clang"
  },
  "schemaVersion": "3.4.7",
  "updatedAt": "2022-05-30T17:58:44.951Z",
  "networkType": "ethereum",
  "devdoc": {
    "methods": {}
  },
  "userdoc": {
    "methods": {}
  }
}